:100000000C94E9000C9411010C9411010C94110151
:100010000C9411010C9411010C9411010C94110118
:100020000C9411010C9411010C9471060C94E006CF
:100030000C9411010C9411010C9411010C941101F8
:100040000C9411010C9411010C9411010C941101E8
:100050000C9411010C9411010C9411010C942706BD
:100060000C9411010C9411010C9411010C941101C8
:100070000C9411010C9411010C9411010C941101B8
:100080000C9411010C9411010C9411010C941101A8
:100090000C9411010C9411010C9411010C94110198
:1000A0000C9411010C9411010C941101080B000225
:1000B0000202000009040000010202000005240001
:1000C0001001052401010104240206052406000193
:1000D0000705810310004009040100020A00000026
:1000E00007050202400000070583024000000403E8
:1000F000090412010002EF02014041233680000191
:100100000102030141726475696E6F204C4C43001B
:1001100041726475696E6F204C656F6E6172646FB9
:100120000000000000000000002A2B280000000052
:1001300000000000000000000000000000000000BF
:10014000002C9EB4A0A1A2A434A6A7A5AE362D373C
:1001500038271E1F20212223242526B333B62EB78D
:10016000B89F8485868788898A8B8C8D8E8F9091A5
:1001700092939495969798999A9B9C9D2F3130A332
:10018000AD350405060708090A0B0C0D0E0F1011FA
:1001900012131415161718191A1B1C1DAFB1B0B580
:1001A0000005010906A1018502050719E029E715E7
:1001B0000025017501950881029501750881039557
:1001C000067508150025730507190029738100C0FD
:1001D000120911241FBECFEFDAE0DEBFCDBF11E060
:1001E000A0E0B1E0E0EFF5E102C005900D92AC397E
:1001F000B107D9F722E0ACE9B1E001C01D92A1340A
:10020000B207E1F710E0C9EED0E004C02197FE018B
:100210000E94F00AC83ED107C9F70E94AA090C94AF
:10022000F60A0C940000CF93DF93FC01818190913A
:100230001002482F490F5527551F483051059CF58E
:10024000A281B381109709F52CE032E03383228339
:10025000208120930E0280930F0280911102820F61
:10026000808320911202A22FB09113028A2F821B49
:100270008917E8F481813D91C82FD0E0C45ADE4F40
:1002800038838F5F8183F2CFD90118962D913C91ED
:10029000199721153105C1F72CE032E019963C93EE
:1002A0002E931897D5CF80E0DF91CF91089581E00C
:1002B000FBCFFC018091BB01882311F13FB7F8947B
:1002C00082E08093E9002091F200822F90E01816DE
:1002D000190614F481E090E0882339F0289844E668
:1002E0004093BA014091F1004083222339F02091DC
:1002F000F200211103C02BE62093E8003FBF0895D0
:100300008FEF9FEF08953FB7F8948091B6019091D9
:10031000B701A091B801B091B90126B5A89B05C05D
:100320002F3F19F00196A11DB11D3FBFBA2FA92F74
:10033000982F8827BC01CD01620F711D811D911D71
:1003400042E0660F771F881F991F4A95D1F70895DD
:100350008F929F92AF92BF92CF92DF92EF92FF92D5
:100360004B015C010E9483016B017C010E948301AF
:100370006C197D098E099F09683E734081059105BE
:10038000A8F321E0821A9108A108B10888EEC80EEE
:1003900083E0D81EE11CF11C81149104A104B10476
:1003A00029F7FF90EF90DF90CF90BF90AF909F9094
:1003B0008F9008954091AA015091AB012091A8011E
:1003C0003091A90142175307B4F49091E800957059
:1003D000E1F39091E80092FD19C08093F1008091C3
:1003E000AA019091AB0101968F739927892B19F47B
:1003F0008EEF8093E8008091AA019091AB01019665
:100400009093AB018093AA0181E0089580E0089564
:10041000EF92FF920F931F93CF93DF93F82E192F34
:10042000E62E042F81E0860F880F0E94DA0183E018
:100430000E94DA01CF2DD12FEC0EFD2EF11CCE152E
:10044000DF05B9F007FF13C0FE0184910E94DA01B5
:10045000182F80E00E94DA01812321968111EFCFCD
:10046000DF91CF911F910F91FF90EF9008958881B8
:10047000EDCF81E0F5CFDF92EF92FF920F931F93C4
:10048000CF93DF93D82E8A01EB017B01E40EF51E9A
:10049000CE15DF0559F0D7FE12C0FE0184910E94EF
:1004A000DA0121968111F4CF0FEF1FEFC801DF9120
:1004B000CF911F910F91FF90EF90DF900895888169
:1004C000EECF2FB7F89487708093E9009091E80001
:1004D000892F807295FF04C09091F20080E4891BFF
:1004E0002FBF08957F928F929F92AF92BF92CF922B
:1004F000DF92EF92FF920F931F93CF93DF93C82E5B
:100500008B017A018091BB01811110C08FEF9FEFA9
:10051000DF91CF911F910F91FF90EF90DF90CF90DF
:10052000BF90AF909F908F907F9008958091AE0183
:1005300080FF05C08091E00082608093E000CE2DB6
:10054000DF2DD12C8AEFB82E8C2D8770982E8C2D14
:100550008072882E8C2D8074782E9AE3A92E209795
:1005600019F4DD2009F452C08C2D0E946102811122
:100570000AC0BA94BB2051F261E070E080E090E0E4
:100580000E94A801ECCF8C171D0611F00CF08C2FE7
:100590009FB7F8949092E9002091E80025FD02C0F1
:1005A0009FBFDDCF282F30E0C21BD30B882029F05E
:1005B0008150A0F01092F100FBCFF801C7FC0AC0F7
:1005C000815050F041914093F100FACF4491409313
:1005D000F10031968150D0F7020F131FDD2021F07A
:1005E000A092E800D12CDCCF8091E80085FD07C007
:1005F000A092E800DD24D394209791F2F3CF2097C6
:1006000079F6772069F2A092E800CACF5D9884E677
:100610008093AD01C7017CCF615030F02091F10093
:10062000FC0120830196F8CF289884E68093BA01D4
:1006300008958091A00181110DC082E080939C01FA
:1006400084E080939D0110929F0110929E0181E0B1
:100650008093A0018CE991E00895EF92FF921F939F
:10066000CF93DF931F92CDB7DEB77C0180911D023F
:1006700081112AC011E0109310021093110286E13B
:1006800092E090931302809312021092150210923E
:10069000140289E791E090930D0280930C0210926E
:1006A00018021092170210921A0210921902109357
:1006B0001B0210931C0281EC809316020E94190306
:1006C0000E94130110931D0282E0898341E050E0F3
:1006D000BE016F5F7F4F80910F020E94720297FDF3
:1006E00008C080910F0248E050E0B70180640E948A
:1006F00072020F90DF91CF911F91FF90EF900895BC
:100700000F931F93CF93DF931F92CDB7DEB782E095
:10071000898342E450E06CEA70E080E80E943B028A
:100720000E941903DC0112960D911C91011511050F
:1007300089F0D801ED91FC910280F381E02DBE019A
:100740006F5F7F4FC801099597FD04C0F8010085D0
:100750001185ECCF89810F90DF91CF911F910F917F
:100760000895CF93DF93EC0180910B01882331F042
:1007700083E00E9472021816190634F081E090E0BE
:100780009B838A8380E090E0DF91CF910895CF939F
:10079000DF931F92CDB7DEB76983DC01ED91FC9149
:1007A0000280F381E02D41E050E0BE016F5F7F4F9A
:1007B00009950F90DF91CF91089583E08093E90030
:1007C0008091F200882319F08AE38093E80008956D
:1007D00083E00E94610290E00895CF93DF931F921F
:1007E000CDB7DEB7FC018485958597FD08C02FEF56
:1007F0003FEF358724870F90DF91CF910895CE0189
:1008000001960E945901019719F4898190E0F3CF74
:100810008FEF9FEFF0CF0F931F93CF93DF931F9234
:10082000CDB7DEB78C01FC018485958597FF0BC0A1
:10083000CE0101960E945901019771F4898190E0DF
:10084000F80195878487F801848595850F90DF915D
:10085000CF911F910F9108958FEF9FEFF1CFFC0182
:100860008485958597FD0BC09FB7F89482E08093AF
:10087000E9008091F2009FBF90E0019608959FB734
:10088000F89482E08093E9008091F2009FBF90E0AD
:100890000895DC01FB0112962C91129784819581B9
:1008A0002817190641F491818081813A31F49D7FA6
:1008B00081E0913009F080E008958132E1F79B30CA
:1008C00029F482811F968C9381E008959A3099F7DC
:1008D000828150968C93F8CFDC01FB0188E4808301
:1008E00089E4818384E482831D969C911D979F7087
:1008F0009F5B93831D968D919C9124E0969587959F
:100900002A95E1F78F708F5B848385E00895EF92DD
:10091000FF920F931F93CF93DF93FB012081213828
:1009200071F52381223259F5DC0112964C91248114
:1009300035814217130619F5EC010B851C85F12C46
:10094000E12C0115110589F0F8014481558162817E
:10095000738180E80E943B028F3F980749F0E80EC0
:10096000F91ED8010D911C91ECCF81E08F87C70152
:10097000DF91CF911F910F91FF90EF90089590E03C
:1009800080E0F6CFCF93DF93CDB7DEB769970FB690
:10099000F894DEBF0FBECDBFFC01DB018C918F5FF1
:1009A0008C939E012D5F3F4F8DE0D9011D928A955A
:1009B000E9F729E0298384E08A8391E09D8383E03D
:1009C0008E832A8721E22B879C879D879F8722E23F
:1009D000288B27E02B8B25E02C8B8E8B20E430E0BE
:1009E000388F2F8B998F82818B8395858685998B04
:1009F0008A8B838180688D8B49E150E0BE016F5FF7
:100A00007F4F80E00E943B0269960FB6F894DEBFEC
:100A10000FBECDBFDF91CF910895CF92DF92EF92BD
:100A2000FF920F931F93CF93DF936C01EB017B0138
:100A3000E40EF51E10E000E0CE15DF0581F06991AF
:100A40006D30D1F3D601ED91FC910190F081E02D54
:100A5000C6010995892B19F00F5F1F4FEDCFC80113
:100A6000DF91CF911F910F91FF90EF90DF90CF908A
:100A70000895DC016838A0F06858FD0186E066231F
:100A800021F09681961301C0168281503196811112
:100A9000F6CFCD0104960E942D0381E090E00895E9
:100AA000862F90E067FF13C0FC01E058F10981E058
:100AB00090E001C0880FEA95EAF7809514969C9122
:100AC0001497892314968C93149760E0D6CF1C96C4
:100AD000ED91FC911D97E80FF91F64916623E1F0F9
:100AE000862F807C803C69F414968C9114978F7BC0
:100AF00014968C9314976F73623309F0BECF64E63B
:100B0000BCCF67FFF9CF14968C9114978D7F149604
:100B10008C9314976F77F0CF90E080E00895DC011C
:100B2000683888F1685816968C911697861721F1C7
:100B300017968C9117978617F9F018968C9118973D
:100B40008617D1F019968C9119978617A9F01A96E5
:100B50008C911A97861781F01B968C911B9786179C
:100B600059F0FD01369690E080E0219121114FC0AF
:100B70008A0F9B1FFC016683CD0104960E942D0302
:100B800081E090E00895862F90E067FF12C0FC019D
:100B9000E058F10921E030E001C0220FEA95EAF7C0
:100BA00014968C911497822B14968C93149760E072
:100BB000BACF1C96ED91FC911D97E80FF91F649137
:100BC000611109C081E090E013969C938E93129777
:100BD00090E080E00895862F807C803C69F4149634
:100BE0008C911497806414968C9314976F7362336E
:100BF00009F099CF64E697CF67FFF9CF14968C91EF
:100C00001497826014968C9314976F77F0CF0196A7
:100C10008630910509F0A9CFD5CFEF92FF921F93AF
:100C2000CF93DF93EC01162F0E948F057C01612F7B
:100C3000CE010E943905C7019927DF91CF911F91FD
:100C4000FF90EF900895089590E080E008951F923E
:100C50000F920FB60F9211242F933F938F939F9370
:100C6000AF93BF938091B2019091B301A091B40171
:100C7000B091B5013091B10123E0230F2D3758F524
:100C80000196A11DB11D2093B1018093B2019093F3
:100C9000B301A093B401B093B5018091B6019091D6
:100CA000B701A091B801B091B9010196A11DB11D84
:100CB0008093B6019093B701A093B801B093B901A6
:100CC000BF91AF919F918F913F912F910F900FBE48
:100CD0000F901F90189526E8230F0296A11DB11DB5
:100CE000D2CF1F920F920FB60F9211248F939F9322
:100CF0008091E1009091E100937F9093E10083FF68
:100D00000FC01092E90091E09093EB001092EC007C
:100D100092E39093ED001092BB0198E09093F00065
:100D200082FF22C093E09093E9009091F200992312
:100D300019F09AE39093E8009091AD01992341F066
:100D40009091AD0191509093AD01911101C05D9AC8
:100D50009091BA01992341F09091BA0191509093EA
:100D6000BA01911101C0289A84FF18C08091E20055
:100D70008E7E81608093E2008091E1008F7E80937F
:100D8000E1008091AE018E7E80618093AE019F91E3
:100D90008F910F900FBE0F901F90189580FFF7CF87
:100DA0008091E2008E7E80618093E2008091E1007C
:100DB0008E7E8093E1008091AE018E7E8160E5CFD2
:100DC0001F920F920FB60F921124CF92DF92EF92E3
:100DD000FF920F931F932F933F934F935F936F93C4
:100DE0007F938F939F93AF93BF93EF93FF93CF9393
:100DF000DF93CDB7DEB76C97DEBFCDBF1092E900B1
:100E00008091E80083FF25C068E0CE0145960E94EE
:100E10000C0382EF8093E8008D8987FF39C09091A1
:100E2000E80090FFFCCF982F907609F034C19E899E
:100E30004F89588D2F89F88C911131C0803861F518
:100E40008091AF018093F1001092F1008EEF8093BA
:100E5000E8006C960FB6F894DEBF0FBECDBFDF91F1
:100E6000CF91FF91EF91BF91AF919F918F917F9122
:100E70006F915F914F913F912F911F910F91FF9033
:100E8000EF90DF90CF900F900FBE0F901F901895AE
:100E90009EEF9093E800C7CF1092F100D5CF91302C
:100EA00059F48111D3CF4130510581F68091AF01C2
:100EB0008D7F8093AF01CACF933049F48111C6CFA3
:100EC0004130510519F68091AF018260F2CF953023
:100ED00041F48091E80080FFFCCF20682093E3007C
:100EE000B5CF963009F0A9C00B8D1C8D22E0109271
:100EF000E9001092AB011092AA01F2122EC01092DA
:100F0000A9011092A8010E9480031F8299E0998391
:100F1000FA8291E09E8390EA98879AEF99872091D0
:100F2000AA013091AB01275F3F4F3C832B838D8318
:100F30001092E9001092AB011092AA011093A9013E
:100F40000093A80149E050E0BE016F5F7F4F80E051
:100F50000E943B020E94800379CF1093A901009365
:100F6000A8010E941903DC0112960D911C91011534
:100F7000110509F451C1D801ED91FC910480F5816E
:100F8000E02DBE016B5E7F4FC8010995009709F007
:100F90003EC1F80100851185EACFF3E0FF120EC0D3
:100FA0008F89882309F440C0823061F440E860E111
:100FB00080E191E00E940802811148CF81E2809394
:100FC000EB0047CF813029F440E86BE084E091E00A
:100FD000F1CF833099F70E941903DC011296ED904E
:100FE000FC908E010F5F1F4F6801E114F10479F04E
:100FF000D701ED91FC910680F781E02DB801C70182
:101000000995080F111DF701E084F184EECFD80196
:101010001C92F60101900020E9F73197BF016C198D
:101020007D0940E0C601C6CF6EEE70E0FB01449141
:1010300050E080E80E943B0209CF973009F4BECF10
:10104000983021F481E08093F10000CF993009F0CD
:10105000FDCE837009F0B2CFEDE5F1E081E031E043
:1010600096E32191222371F08093E9003093EB0005
:10107000DF0111972C912093EC009093ED008F5F8E
:10108000873079F78EE78093EA001092EA008F8923
:101090008093BB01DBCE8B8D9C8D1092E90010926A
:1010A000AB011092AA019093A9018093A801898DA8
:1010B000811192C08E899D89913A49F4813209F05B
:1010C0007DCF47E050E064E071E080E0B3CF913243
:1010D00009F074CF833269F48F89988DB0E0A0E075
:1010E0008093000190930101A0930201B09303014A
:1010F000ADCE803269F48091E80082FFFCCF67E0DA
:1011000084E091E00E940C038BEF8093E8009ECE78
:10111000823209F09BCE8F8980930B01EEEFFFE7BF
:10112000859194918B3F9C4D51F1E0E0F8E08091E6
:10113000040190910501A0910601B0910701803B47
:101140009440A105B105F1F480910B0180FD1AC016
:10115000EE3F8AE0F80789F587E797E79183808378
:10116000809160008093AC0188E19BE00FB6F89419
:10117000A895809360000FBE9093600067CEEEEF5D
:10118000FAE0D5CF808191818737974709F05ECE0D
:10119000A895809160008861809360008091AC0187
:1011A00080936000EE3F2AE0F20789F08091FE0A0A
:1011B0009091FF0A9183808349CE80819181873706
:1011C000980751F29093FF0A8093FE0AC5CF1092C0
:1011D000FF0A1092FE0A3ACE0E941903DC01129611
:1011E0000D911C910115110509F4E8CED801ED917E
:1011F000FC910190F081E02DBE016B5E7F4FC80134
:101200000995811123CEF80100851185EBCF1816C1
:1012100019060CF41BCED2CEF1E0FF12BECE62EF67
:1012200070E004CFCF931092BF011092BE0188EE00
:1012300093E0A0E0B0E08093C0019093C101A0933F
:10124000C201B093C30187E691E09093BD01809302
:10125000BC018FEF9FEF9093C9018093C80110925A
:1012600036021092350285E891E090933402809323
:10127000330280912B02811113C01092260210922A
:10128000250281EA91E090932802809327028FE261
:1012900090E090932A028093290281E080932B02B0
:1012A00080911D0281112AC0C1E0C0931002C09339
:1012B000110286E192E09093130280931202109241
:1012C00015021092140289E791E090930D02809329
:1012D0000C02109218021092170210921A02109229
:1012E0001902C0931B02C0931C0281EC809316026A
:1012F0000E9419030E941301C0931D02E09117027E
:10130000F09118023097E9F485E292E09093180288
:10131000809317028091190290911A02209129025C
:1013200030912A02820F931F90931A028093190220
:1013300081E291E09093400280933F02CF91089523
:10134000FC01808191810097D9F785E292E0918339
:101350008083E0CF789484B5826084BD84B5816059
:1013600084BD85B5826085BD85B5816085BD809170
:101370006E00816080936E001092810080918100E8
:1013800082608093810080918100816080938100E0
:1013900080918000816080938000809191008260C4
:1013A0008093910080919100816080939100809161
:1013B00090008160809390008091C1008460809350
:1013C000C1008091C10082608093C1008091C10002
:1013D00081608093C1008091C30081608093C300CD
:1013E0008091C00082608093C0008091C2008160C3
:1013F0008093C20080917A00846080937A0080910B
:101400007A00826080937A0080917A008160809374
:101410007A0080917A00806880937A001092BB01F4
:101420001092AF011092AE018091D700816080933D
:10143000D70080EA8093D80089B5806189BD89B5DD
:10144000826089BD09B400FEFDCF61E070E080E0FC
:1014500090E00E94A8018091D8008F7C80618093E9
:10146000D8008091E000807F8093E0008091E100CF
:101470008E7E8093E1008DE08093E200559A209A61
:1014800084B7877F84BF0FB6F894A89580916000D9
:10149000886180936000109260000FBEF89480E82D
:1014A0008093610010926100789414B81AB88FEF9D
:1014B00085B98BB98FEF9FEF9093C9018093C801D5
:1014C00068EE73E080E090E00E94A8014BE050E0FD
:1014D0006DE871E08CEB91E00E94B10342E050E0D6
:1014E00069E971E08CEB91E00E94B1030CE511E039
:1014F000EE24E394F12CBB24B39490E0C92E90E049
:10150000D92ECCE0D1E08881970101C0220F8A95C5
:10151000EAF799B1922381E009F480E08A8383B1EC
:10152000822321E009F420E02B832C81211102C0C9
:101530009111BC829C81992311F081111C829C81A4
:101540008D81981709F10E9483014E805F80688425
:1015500079846419750986099709603D774081058A
:10156000910590F00E9483016E837F83888799871D
:101570008C816981882379F1613691F48091B00181
:10158000813611F08337A1F42A960C171D0709F054
:10159000BACFC114D10409F4B4CF0E940000B1CF76
:1015A000633781F48091B001833771F3843661F33E
:1015B00083E392E00E948F0589818093B0018C8142
:1015C0008D83E2CF6436A1F78091B0018436E1F2D9
:1015D000813671F7D9CF83E392E00E943905EFCFCE
:1015E000EE0FFF1F0590F491E02D0994F894FFCFC2
:1015F000FFFFFFFF00E100000000000000610000AD
:101600000000000000000173000000000000000066
:1016100002640000000000000000037600000000EB
:1016200000000000043B0000000000000000056C0A
:101630000000000000000000066B00000000000039
:101640000000076E000000000000000000C1808163
:1016500000000000000000C703B103E803DD032F12
:1016600004ED030B04000000004904C20487046C6D
:1016700004000000000D060D0524062306696E69AE
:0C1680007469616C697A6564000D0A00F1
:00000001FF
